:100000000C9434000C9451000C9451000C94510049
:100010000C9451000C9451000C9451000C9451001C
:100020000C9451000C9451000C9451000C9451000C
:100030000C9451000C9451000C9451000C945100FC
:100040000C9451000C9451000C9451000C945100EC
:100050000C9451000C9451000C9451000C945100DC
:100060000C9451000C94510011241FBECFEFD8E026
:10007000DEBFCDBF11E0A0E0B1E0E8E4F9E002C0EE
:1000800005900D92AE33B107D9F721E0AEE3B1E0B0
:1000900001C01D92AE36B207E1F70E9417010C9421
:1000A000A2040C940000ECEBF0E0108294EA908340
:1000B00090819923ECF79091B900987F9830A1F442
:1000C0008093BB0084E88093BC00ECEBF0E080817F
:1000D0008823ECF79091B900987F983139F081E04E
:1000E000903429F480E0089581E0089580E0089537
:1000F0008093BB0084E88093BC00ECEBF0E080814F
:100100008823ECF79091B900987F81E0983209F448
:1001100080E0089584EC8093BC00ECEBF0E08081FB
:100120008823ECF78091BB00089584E88093BC009D
:10013000ECEBF0E080818823ECF78091BB00089520
:10014000CF92DF92FF920F931F93CF93DF936B01B8
:100150008A010E945300F82E811112C00115110569
:1001600059F0E6010C0D1D1D89910E947800811146
:100170000AC00C171D07C1F784E98093BC0005C0B5
:10018000FF24F39402C0FF24F3948F2DDF91CF91CD
:100190001F910F91FF90DF90CF900895AF92BF9283
:1001A000DF92EF92FF920F931F93CF93DF935B0148
:1001B0007A0181600E945300D82E811118C081E01D
:1001C000E81AF10851F0E50185010E0D1F1D0E948E
:1001D0008A0089930C171D07D1F7E501CE0DDF1DAD
:1001E0000E949500888384E98093BC0002C0DD24CE
:1001F000D3948D2DDF91CF911F910F91FF90EF90B0
:10020000DF90BF90AF9008959093C5008093C40095
:1002100088E18093C10086E08093C2000895E0ECFD
:10022000F0E0908195FFFDCF8093C600089583E3B1
:1002300090E00E94040148E050E060E071E080ED51
:100240000E94A000CEE3D1E0188241E050E0BE0160
:1002500080ED0E94A00047E050E06FE371E080ED88
:100260000E94CE008F811F928F938E811F928F9359
:100270008D811F928F938C811F928F938B811F9200
:100280008F938A811F928F9389811F928F9388E029
:1002900091E09F938F9386E491E09F938F930E94C8
:1002A000B801C6E4D1E00F2EFEE6EF2EF1E0FF2EFE
:1002B000F02D8DB79EB742960FB6F8949EBF0FBE35
:1002C0008DBF8E01F80181918F010E940F01E01610
:1002D000F106C1F7FFEF21E18AE7F15020408040AD
:1002E000E1F700C0000041E050E06EE371E080ED16
:1002F0000E94A00047E050E06FE371E080ED0E94B3
:10030000CE00EEE3F1E087811F928F9386811F92EA
:100310008F9385811F928F9384811F928F93838106
:100320001F928F9382811F928F9381811F928F934F
:1003300086E291E09F938F9386E491E09F938F9361
:100340000E94B801EDB7FEB772960FB6F894FEBFE3
:100350000FBEEDBF89910E940F01CE15DF05D1F7C9
:1003600048E050E060E071E080ED0E94A000FFCF27
:10037000AEE0B0E0EEEBF1E00C9479040D891E895B
:1003800086E08C831A8309838FEF9FE79E838D839A
:10039000AE01475E5F4F6F89788DCE0101960E9456
:1003A000DA01EF81F885E00FF11F10822E96E4E06C
:1003B0000C949504ABE0B0E0E0EEF1E00C946B043B
:1003C0006C017B018A01FC0117821682838181FF07
:1003D000CCC1CE0101963C01F6019381F70193FD5A
:1003E000859193FF81917F01882309F4BAC18532F9
:1003F00039F493FD859193FF81917F01853229F432
:10040000B60190E00E94D103E7CF912C212C312C32
:10041000FFE1F315D8F08B3279F038F4803279F0BF
:100420008332A1F4232D20611DC08D3261F0803311
:1004300069F4232D216016C0832D8260382EE32DB0
:10044000E4603E2E2AC0F32DF8601DC037FC2DC09D
:1004500020ED280F2A3040F08E32B9F436FC81C1ED
:10046000232D2064322E19C036FE06C08AE0989EE5
:10047000200D1124922E11C0EAE02E9E200D112491
:10048000222EF32DF0623F2E08C08C3621F4832DEE
:100490008068382E02C0883641F4F70193FD8591BB
:1004A00093FF81917F018111B3CF982F9F7D955448
:1004B000933028F40C5F1F4F9FE399830DC0833660
:1004C00031F0833771F0833509F059C021C0F8014C
:1004D000808189830E5F1F4F88248394912C530160
:1004E00013C02801F2E04F0E511CF801A080B1802A
:1004F00036FE03C0692D70E002C06FEF7FEFC501CB
:100500000E94C6034C018201F32DFF773F2E16C0D7
:10051000280122E0420E511CF801A080B18036FE75
:1005200003C0692D70E002C06FEF7FEFC5010E942C
:10053000BB034C01F32DF0683F2E820133FC1BC03E
:10054000822D90E088169906B0F4B60180E290E022
:100550000E94D1032A94F4CFF50137FC859137FE30
:1005600081915F01B60190E00E94D10321102A948D
:1005700021E0821A91088114910471F7E8C0843651
:1005800011F0893641F5F80137FE07C060817181AD
:10059000828193810C5F1F4F08C060817181072E9B
:1005A000000C880B990B0E5F1F4FF32DFF763F2E2B
:1005B00097FF09C090958095709561957F4F8F4FFB
:1005C0009F4FF0683F2E2AE030E0A3010E940D0407
:1005D000882E861845C0853731F4232D2F7EB22E04
:1005E0002AE030E025C0932D997FB92E8F36C1F0D7
:1005F00018F4883579F0B5C0803719F0883721F0C4
:10060000B0C0E92FE061BE2EB4FE0DC0FB2DF4603A
:10061000BF2E09C034FE0AC0292F2660B22E06C0A4
:1006200028E030E005C020E130E002C020E132E007
:10063000F801B7FE07C060817181828193810C5FF0
:100640001F4F06C06081718180E090E00E5F1F4FF8
:10065000A3010E940D04882E8618FB2DFF773F2EE4
:1006600036FE0DC0232D2E7FA22E891458F434FEA1
:100670000BC032FC09C0832D8E7EA82E05C0B82C7D
:10068000A32C03C0B82C01C0B92CA4FE0FC0FE01DE
:10069000E80DF11D8081803321F49A2D997EA92ED9
:1006A00009C0A2FE06C0B394B39404C08A2D867814
:1006B00009F0B394A3FC11C0A0FE06C0B21488F4E4
:1006C000280C922C9B180EC0B21460F4B60180E284
:1006D00090E00E94D103B394F7CFB21418F42B1812
:1006E00002C0982C212CA4FE10C0B60180E390E03B
:1006F0000E94D103A2FE17C0A1FC03C088E790E0CE
:1007000002C088E590E0B6010CC08A2D867859F0C9
:10071000A1FE02C08BE201C080E2A7FC8DE2B6011F
:1007200090E00E94D103891438F4B60180E390E090
:100730000E94D1039A94F7CF8A94F301E80DF11D3A
:100740008081B60190E00E94D1038110F5CF222074
:1007500009F442CEB60180E290E00E94D1032A94CF
:10076000F6CFF6018681978102C08FEF9FEF2B961F
:10077000E2E10C948704FC01059061507040011087
:10078000D8F7809590958E0F9F1F0895FC016150BA
:10079000704001900110D8F7809590958E0F9F1FA3
:1007A00008950F931F93CF93DF93FB01238121FDC6
:1007B00003C08FEF9FEF2CC022FF16C046815781E8
:1007C000248135814217530744F4A081B1819D01F2
:1007D0002F5F3F4F318320838C93268137812F5F9A
:1007E0003F4F3783268314C08B01EC01FB0100844B
:1007F000F185E02D0995892BE1F6D80116968D91AA
:100800009C911797019617969C938E931697CE01FD
:10081000DF91CF911F910F910895FA01AA272830F7
:1008200051F1203181F1E8946F936E7F6E5F7F4FBD
:100830008F4F9F4FAF4FB1E03ED0B4E03CD0670F39
:10084000781F891F9A1FA11D680F791F8A1F911D8C
:10085000A11D6A0F711D811D911DA11D20D009F4DC
:1008600068943F912AE0269F11243019305D31931E
:10087000DEF6CF010895462F4770405D4193B3E007
:100880000FD0C9F7F6CF462F4F70405D4A3318F0AE
:10089000495D31FD4052419302D0A9F7EACFB4E05F
:1008A000A6959795879577956795BA95C9F7009717
:1008B0006105710508959B01AC010A2E06945795B8
:1008C000479537952795BA95C9F7620F731F841F0F
:1008D000951FA01D08952F923F924F925F926F92A5
:1008E0007F928F929F92AF92BF92CF92DF92EF92C0
:1008F000FF920F931F93CF93DF93CDB7DEB7CA1B41
:10090000DB0B0FB6F894DEBF0FBECDBF09942A886B
:10091000398848885F846E847D848C849B84AA8413
:10092000B984C884DF80EE80FD800C811B81AA81A0
:10093000B981CE0FD11D0FB6F894DEBF0FBECDBF6B
:08094000ED010895F894FFCFCA
:100948000026592304311299532578204D25782003
:100958004825782044257820462578206D2578205C
:100968004125780A0D00257820257820257820252E
:0E097800782025782025782025780A0D0000AB
:00000001FF
