S00B00005350492E737265632D
S11300000C9434000C943E000C943E000C943E007E
S11300100C943E000C943E000C943E000C943E0064
S11300200C943E000C943E000C943E000C943E0054
S11300300C943E000C943E000C943E000C943E0044
S11300400C943E000C943E000C943E000C943E0034
S11300500C943E000C943E000C943E000C943E0024
S11300600C943E000C943E0011241FBECFEFD8E048
S1130070DEBFCDBF0E9440000C948F000C940000A2
S113008084B18C6284B98CB580658CBD2A988CE06F
S11300908EBD0DB407FEFDCF81E08EBD0DB407FE0D
S11300A0FDCF2A9A2A9889E08EBD0DB407FEFDCFB4
S11300B08FE08EBD0DB407FEFDCF2A9A2A988AE000
S11300C08EBD0DB407FEFDCF8FE08EBD0DB407FECF
S11300D0FDCF2A9A2A988BE08EBD0DB407FEFDCF82
S11300E081E08EBD0DB407FEFDCF2A9A2A9881E0E7
S11300F08EBD0DB407FEFDCF85E08EBD0DB407FEA9
S1130100FDCF2A9A2A9882E08EBD0DB407FEFDCF5A
S113011087E08EBD0DB407FEFDCF2A9AFFCFF89479
S1050120FFCF0B
S9030000FC
