S0150000456A656D706C6F315F323032312E73726563EE
S11300000C9434000C943E000C943E000C943E007E
S11300100C943E000C943E000C943E000C943E0064
S11300200C943E000C943E000C943E000C943E0054
S11300300C943E000C943E000C943E000C943E0044
S11300400C943E000C943E000C943E000C943E0034
S11300500C943E000C943E000C943E000C943E0024
S11300600C943E000C943E0011241FBECFEFD8E048
S1130070DEBFCDBF0E9470000C9475000C9400008C
S113008084B18FEF84B99AB18AB984B18E7D84B971
S1130090089529E030E081E090E085B94FE75AE126
S11300A066E0415050406040E1F700C00000880F16
S11300B0991F2150310989F729E030E081E090E06F
S11300C08BB94FE75AE166E0415050406040E1F798
S11300D000C00000880F991F2150310989F7089545
S11100E00E9440000E944900FDCFF894FFCF1B
S9030000FC
