S00B00004144432E7372656351
S11300000C9434000C9446000C9446000C94460066
S11300100C9446000C9446000C9446000C94460044
S11300200C9446000C9446000C9446000C94460034
S11300300C9446000C9446000C9446000C94460024
S11300400C9446000C9446000C9446000C94460014
S11300500C9446000C9446000C9446000C94460004
S11300600C9446000C94460011241FBECFEFD8E038
S1130070DEBFCDBF21E0A0E0B1E001C01D92A03001
S1130080B207E1F70E9458000C946C000C94000035
S1130090806480937C00EAE7F0E080818064808360
S11300A0808184FFFDCF809178009091790008953C
S11300B08FEF84B98AB980E480937C00EAE7F0E0AA
S11300C08081816C808380E00E94480085B981E052
S10F00D00E9448008BB9F7CFF894FFCFD2
S9030000FC
