S011000052657061736F5F31302E73726563E9
S11300000C9434000C9451000C9451000C94510045
S11300100C9451000C9451000C9451000C94510018
S11300200C9451000C9451000C9451000C94510008
S11300300C9451000C9451000C9451000C945100F8
S11300400C9451000C9451000C9451000C945100E8
S11300500C9451000C9451000C9451000C945100D8
S11300600C9451000C94510011241FBECFEFD8E022
S1130070DEBFCDBF11E0A0E0B1E0E0E5F1E002C0F9
S113008005900D92A630B107D9F721E0A6E0B1E0C2
S113009001C01D92A830B207E1F70E947A000C94C7
S11300A0A6000C94000094B1892B84B9089597B1EB
S11300B08095982397B908958FEF0E94530083E0A9
S11300C00E945700089520910601820F911DFC01A2
S11300D0808185B980910601853010F48F5F01C05D
S11300E080E08093060183E294EF0197F1F700C06A
S11300F000000895CF93DF9300D000D000D0CDB797
S1130100DEB786E0E0E0F1E0DE01119601900D92A9
S11301108A95E1F70E945C0011E086B1813419F4FC
S1130120109307010CC086B1823429F410920701A0
S11301301092060109C080910701813029F4CE0193
S113014001960E946300E9CF15B8E7CFF894FFCF7A
S10901503F065B4F6677D9
S9030000FC
