:100000000C9434000C943E000C943E000C943E0082
:100010000C943E000C943E000C943E000C943E0068
:100020000C943E000C943E000C943E000C943E0058
:100030000C943E000C943E000C9440000C943E0046
:100040000C943E000C943E000C943E000C943E0038
:100050000C943E000C943E000C943E000C943E0028
:100060000C943E000C943E0011241FBECFEFD8E04C
:10007000DEBFCDBF0E9455000C9475000C940000AB
:100080001F920F920FB60F9211248F939F9380911E
:100090007800909179009695879585B99F918F9179
:1000A0000F900FBE0F901F90189584B19FEF94B9D9
:1000B000ECE7F0E0808180648083EAE7F0E0808113
:1000C000836A8083EBE7F0E080818360808384B57E
:1000D000826084BD85B5856085BD97BDEEE6F0E0A4
:0E00E0008081826080837894FFCFF894FFCFF8
:00000001FF
