S023000050726573656E6369616C206175746F2074726967676572204144432E7372656326
S11300000C9434000C9446000C9446000C94460066
S11300100C9446000C9446000C9446000C94460044
S11300200C9446000C9446000C9446000C94460034
S11300300C9446000C9446000C9462000C94460008
S11300400C9446000C9446000C9446000C94460014
S11300500C9446000C9448000C9446000C94460002
S11300600C9446000C94460011241FBECFEFD8E038
S1130070DEBFCDBF21E0A0E0B1E001C01D92A13000
S1130080B207E1F70E946D000C949C000C940000F0
S11300901F920F920FB60F9211242F938F939F9359
S11300A080917800909179008D3C924010F0289ACC
S11300B001C028989F918F912F910F900FBE0F90A0
S11300C01F9018951F920F920FB60F9211241F9A2A
S11300D00F900FBE0F901F9018959FEF94B984B5A1
S11300E0826084BD85B5856085BD97BDEEE6F0E090
S11300F0808182608083ACE7B0E08C9180648C93D3
S1130100EAE7F0E080818068808380818062808378
S1130110808183608083808188608083EBE7F0E066
S11301208081836080839C9180910001892B80640D
S10F01308C9378940000FECFF894FFCF6D
S9030000FC
