S00E000054696D6572312E73726563E4
S11300000C9434000C943E000C943E000C943E007E
S11300100C943E000C943E000C943E000C943E0064
S11300200C943E000C943E000C943E000C943E0054
S11300300C943E000C943E000C943E000C943E0044
S11300400C943E000C943E000C943E000C943E0034
S11300500C943E000C943E000C943E000C943E0024
S11300600C943E000C943E0011241FBECFEFD8E048
S1130070DEBFCDBF0E9440000C9496000C9400009B
S1130080219AE0E8F0E0808183688083E1E8F0E091
S113009080818A60808381E090E0909389008093DE
S11300A08800E8E8F0E041E050E028EE33E05183D6
S11300B0408380819181893E934080F489E698E170
S11300C00197F1F700C00000808191810A96918325
S11300D0808380819181893E934080F38FE39DE00A
S11300E063E0815090406040E1F700C0000031833C
S11300F0208380819181892B79F089E698E10197A9
S1130100F1F700C00000808191810A979183808378
S113011080819181892B89F79FE36DE083E0915081
S113012060408040E1F700C00000C1CFF894FFCFE9
S9030000FC
