S0200000496E7374657272757063696F6E65735F45787465726E61732E737265630E
S11300000C9434000C9440000C944B000C943E006F
S11300100C943E000C943E000C943E000C943E0064
S11300200C943E000C943E000C943E000C943E0054
S11300300C943E000C943E000C943E000C943E0044
S11300400C943E000C943E000C943E000C943E0034
S11300500C943E000C943E000C943E000C943E0024
S11300600C943E000C943E0011241FBECFEFD8E048
S1130070DEBFCDBF0E9456000C9464000C940000B7
S11300801F920F920FB60F921124189A0F900FBE61
S11300900F901F9018951F920F920FB60F92112474
S11300A0199A0F900FBE0F901F901895529884B113
S11300B0836084B9E9E6F0E08081836080838DB356
S10F00C083608DBB7894FFCFF894FFCFD1
S9030000FC
