S00D00004C43445F312E73726563B4
S11300000C9434000C943E000C943E000C943E007E
S11300100C943E000C943E000C943E000C943E0064
S11300200C943E000C943E000C943E000C943E0054
S11300300C943E000C943E000C943E000C943E0044
S11300400C943E000C943E000C943E000C943E0034
S11300500C943E000C943E000C943E000C943E0024
S11300600C943E000C943E0011241FBECFEFD8E048
S1130070DEBFCDBF0E9440000C947B000C940000B6
S113008084B18FEF84B987B1876087B985EA9EE030
S11300900197F1F700C0000088B1887F88B980E338
S11300A085B9429A4298E1EEF4E03197F1F700C045
S11300B0000085B9429A4298F1E2FA95F1F70000FE
S11300C085B9429A429888E385B9429888E085B90F
S11300D0429A429881E085B9429A429886E085B96D
S11300E0429A42988EE085B9429A42988FE085B947
S10D00F0429A4298FFCFF894FFCF24
S9030000FC
