S00D00005043494E542E7372656399
S11300000C9434000C943E000C943E000C9440007C
S11300100C943E000C943E000C943E000C943E0064
S11300200C943E000C943E000C943E000C943E0054
S11300300C943E000C943E000C943E000C943E0044
S11300400C943E000C943E000C943E000C943E0034
S11300500C943E000C943E000C943E000C943E0024
S11300600C943E000C943E0011241FBECFEFD8E048
S1130070DEBFCDBF0E944E000C945D000C940000C6
S11300801F920F920FB60F92112418992D9A199955
S11300902D980F900FBE0F901F901895F894E8E6D6
S11300A0F0E0808181608083EBE6F0E08081836012
S11100B08083259A78940000FECFF894FFCF49
S9030000FC
