S00E000054696D6572302E73726563E5
S11300000C9434000C943E000C943E000C943E007E
S11300100C943E000C943E000C943E000C943E0064
S11300200C943E000C943E000C943E000C943E0054
S11300300C943E000C943E000C943E000C943E0044
S11300400C943E000C943E000C943E000C943E0034
S11300500C943E000C943E000C943E000C943E0024
S11300600C943E000C943E0011241FBECFEFD8E048
S1130070DEBFCDBF0E9440000C944E000C940000E3
S11300808AB180668AB984B5816B84BD85B5816087
S113009085BD84E687BD87B588BDFFCFF894FFCFC3
S9030000FC
